:020000040800F2
:1000000058050020A1010008491B0008ED14000854
:10001000451B0008AD020008E922000800000000AE
:100020000000000000000000000000006F1B00083E
:10003000B1020008000000004B1B0008711B000803
:10004000BB010008BB010008BB010008BB010008A0
:10005000BB010008BB010008BB010008BB01000890
:10006000BB010008BB010008BB010008BB01000880
:10007000BB010008BB010008BB010008BB01000870
:10008000BB010008BB010008BB010008BB01000860
:10009000BB010008BB010008BB010008BB01000850
:1000A000BB010008BB010008BB010008BB01000840
:1000B000BB010008BB010008BB010008BB01000830
:1000C000BB010008BB010008BB010008BB01000820
:1000D000BB010008D9220008BB010008BB010008D1
:1000E000BB010008BB010008BB010008BB01000800
:1000F000BB010008BB010008BB010008BB010008F0
:10010000BB010008BB010008BB010008BB010008DF
:10011000BB010008BB010008BB010008BB010008CF
:10012000BB010008BB010008BB010008BB010008BF
:10013000BB010008BB010008BB010008BB010008AF
:10014000BB010008BB010008BB010008BB0100089F
:10015000BB010008BB010008BB010008BB0100088F
:10016000BB010008BB010008BB010008BB0100087F
:10017000BB010008BB010008BB0100080000000033
:10018000BB010008BB010008DFF810D000F07CF8CC
:100190000048004741260008AFF3008058050020C2
:1001A0000648804706480047FEE7FEE7FEE7FEE711
:1001B000FEE7FEE7FEE7FEE7FEE7FEE72D1C000890
:1001C000890100082DE9F05F0546002092469B4614
:1001D00088460646814640241BE02846414647465D
:1001E000224600F041F853465A46C01A914110D3B6
:1001F00011461846224600F028F82D1A67EB010830
:100200004F4622460120002100F01FF817EB00099D
:100210004E41201EA4F10104DFDC484631462A4647
:100220004346BDE8F09FD2B201E000F8012B491E21
:10023000FBD270470022F6E710B513460A46044683
:100240001946FFF7F0FF204610BD202A04DB203AB4
:1002500000FA02F1002070479140C2F1200320FA19
:1002600003F3194390407047202A04DB203A21FA17
:1002700002F00021704721FA02F3D040C2F12002BF
:100280009140084319467047064C074D06E0E06868
:1002900040F0010394E8070098471034AC42F6D3CD
:1002A000FFF776FF8C260008AC26000800BFFEE7AB
:1002B0007047704770B504461D460023B5F5804F62
:1002C00013D154F822300C480340D1E9000640EA2B
:1002D00006108E6840EA06208E8940EA06408E6944
:1002E0003043034344F8223003E06FF0704044F899
:1002F0002200002070BD00000000F0CF10B50346C2
:100300000022086853F8202012480240D1E9010475
:100310002043CC6820430C6920434C6920438C69FE
:100320002043CC6920430C6A20434C6A20438C6AEA
:100330002043CC6A2043CC6B20430C6B2043024308
:100340008868082801D142F04002086843F820205C
:10035000002010BD8000F0FF30B503460024501C83
:1003600053F8204004F04044D1E9000540EA05106C
:100370008D6840EA05208D8940EA0545088A401EBF
:1003800045EA0055087D801E45EA00608D692843D6
:100390000443501C43F82040002030BD10B50446F3
:1003A0000CB9012010BD607920B9002020712046D1
:1003B00000F004F8012060710020F3E708B50A4A54
:1003C000016891420FD100BF0021009107490968DF
:1003D00041F48051054A11601146096801F48051C9
:1003E000009100BF00BF08BD00300240303802401D
:1003F000014691F83500022803D08020486501208D
:100400007047052081F835000868006820F0010079
:100410000A6810600020F3E770B5044600F05CF94C
:1004200006462546681C10B104480078054400BF04
:1004300000F052F9801BA842FAD370BD18000020CA
:1004400000B587B0142102A8FFF7F4FE1B4800682E
:1004500008B107B000BD01201849086000BF0020A6
:1004600001901748006840F00100154908600846EF
:10047000006800F00100019000BF00BF4FF68070DF
:1004800002900220039000200490032005900C208D
:10049000069002A90B4800F019F84CF6B3700290D0
:1004A0000220039000200490032005900C20069069
:1004B00002A9054800F00AF800BFCAE708000020BA
:1004C0003838024000100240000C0240F8B50246E5
:1004D0000B460025002400200021DCE0012606FA5E
:1004E00001F51E6806EA0504AC4273D15E68012E70
:1004F00008D05E68022E05D05E68112E02D05E68BC
:10050000122E13D190684F000326BE40B0434F0017
:10051000DE68BE4030439060506801268E40B04394
:100520001E79C6F300168E4030435060D0684F00ED
:100530000326BE40B0434F009E68BE403043D060AB
:100540005E68022E02D05E68122E13D1CF0802F12F
:10055000200656F827004E07F70E0F26BE40B04380
:100560004F07FF0E1E69BE403043CF0802F1200640
:1005700046F8270010684F000326BE40B0431E799E
:1005800006F003064F00BE40304310605E6806F080
:100590008056B6F1805F7DD100BF00260096404EA8
:1005A000366846F480463E4F3E603E46366806F466
:1005B0008046009600BF00BF3A4E8F0856F82700CD
:1005C0008E07370F0F26BE40B043374EB24202D1DE
:1005D000002624E05EE0354EB24201D101261EE045
:1005E000334EB24201D1022619E0324EB24201D15D
:1005F000032614E0304EB24201D104260FE02F4E04
:10060000B24201D105260AE02D4EB24201D10626A2
:1006100005E02C4EB24201D1072600E008268F07E4
:100620003F0FBE4030431F4E8F0846F82700264E2E
:100630003068A0435E6806F48036B6F5803F00D18E
:100640002043214E3060361D3068A0435E6806F4BA
:100650000036B6F5003F00D120431B4E361D3060FA
:10066000361D3068A0435E6806F48016B6F5801F1C
:1006700000D12043144E08363060361D3068A04348
:100680005E6806F40016B6F5001F00D120430E4E3A
:100690000C363060491C1029FFF420AFF8BD000073
:1006A0004438024008380140000002400004024083
:1006B00000080240000C02400010024000140240FA
:1006C00000180240001C0240003C01400AB1816158
:1006D00001E00B0483617047014800687047000027
:1006E00010000020034800680349097808440149C4
:1006F00008607047100000201800002010B50D4859
:10070000006840F400700B4908600846006840F437
:10071000806008600846006840F48070086003202C
:1007200000F0A2F8002000F007F800F02BF80020FD
:1007300010BD0000003C024070B504460E48007831
:100740004FF47A71B1FBF0F00C490968B1FBF0F598
:10075000284600F0DCFC08B1012070BD102C07D247
:1007600000222146501E00F041F80548046001E0D7
:100770000120F2E70020F0E7180000201C00002014
:100780001400002008B500BF002000900E4800684B
:1007900040F480400C4908600846006800F480403E
:1007A000009000BF00BF00BF00200090081F00683D
:1007B00040F08050091F08600846006800F0805033
:1007C000009000BF00BF08BD443802400146084603
:1007D000002809DB00F01F0301229A4043099B0017
:1007E00003F1E023C3F8002100BF70472DE9F05F5B
:1007F00080460D461646002701F088FD074639461B
:100800002A46334601F00700C0F1070ABAF1040F87
:1008100002D94FF0040A01E0C0F1070AD14600F105
:10082000040ABAF1070F02D24FF0000A01E0A0F16A
:10083000030AD4464FF0010A0AFA09FAAAF1010A9A
:100840000AEA020A0AFA0CFA4FF0010B0BFA0CFB47
:10085000ABF1010B0BEA030B4AEA0B0421464046BD
:1008600001F05CFDBDE8F09F00BF00F00702064B01
:1008700019684FF6FF031940044B0B4343EA02216A
:10088000014B196000BF70470CED00E00000FA0555
:1008900070B504460D460CB9012070BD584800687B
:1008A00000F00F00A84209D255490D7008460068B3
:1008B00000F00F00A84201D00120EEE7207800F000
:1008C000020002281DD1207800F00400042805D180
:1008D0004C48006840F4E0504A490860207800F035
:1008E0000800082805D14748006840F460404549A1
:1008F00008604448006820F0F000A16808434149BE
:100900000860207800F00100A8B36068012807D1D2
:100910003C4808380068C0F34040B8B90120BCE743
:100920006068022802D06068032807D1354808387B
:100930000068C0F3406048B90120AEE7314808388C
:100940000068C0F3400008B90120A6E72D48006800
:1009500020F00300616808432A490860FFF7BCFEE5
:10096000064609E0FFF7B8FE801B41F28831884255
:1009700002D9032091E707E02248006800F00C004C
:100980006168B0EB810FEDD11D48006800F00F00E9
:10099000A84209D91A490D700846006800F00F00F6
:1009A000A84201D0012078E7207800F00400042854
:1009B00007D11448006820F4E050E1680843114969
:1009C0000860207800F00800082808D10D48006869
:1009D00020F46040216940EAC1000A49086000F043
:1009E0003FF808490968C1F30311074A515CC84040
:1009F0000649086006480068FFF79EFE00204CE7A5
:100A0000003C024008380240722600081C0000200A
:100A10001400002001480068704700001C000020FE
:100A200000B5FFF7F7FF04490968C1F38221034AC3
:100A3000515CC84000BD0000083802408226000812
:100A400000B5FFF7E7FF04490968C1F34231034AE3
:100A5000515CC84000BD00000838024082260008F2
:100A60002DE9F047002400250026A146254800680E
:100A700000F00C0020B1042805D008283AD105E088
:100A8000DFF8849039E0DFF8849036E01D48001FDD
:100A9000006800F03F041B48001F006800F480005D
:100AA00078B11A481749091F0968C1F38811A0FBDA
:100AB00001700146224600233846FFF783FB0546B6
:100AC0000EE011480F49091F0968C1F38811A0FB06
:100AD00001700146224600233846FFF773FB0546A6
:100AE0000848001F0068C0F30140401C4600B5FBE9
:100AF000F6F902E0DFF8109000BF00BF4846BDE8FD
:100B0000F0870000083802400024F40000127A0048
:100B1000F8B504460CB90120F8BD207800F00100BA
:100B2000002874D0F948006800F00C0004280DD0AB
:100B3000F648006800F00C00082813D1F348001FA5
:100B4000006800F48000B0F5800F0BD1EF48083842
:100B50000068C0F34040002859D06068002856D192
:100B60000120D9E700BF6068B0F5803F08D1E748B1
:100B70000838006840F48030E449083908601EE015
:100B80006068B0F5A02F0DD1E0480838006840F447
:100B90008020DE49083908600846006840F480304B
:100BA00008600CE0D9480838006820F48030D74944
:100BB000083908600846006820F48020086000BFFB
:100BC000606890B1FFF788FD054606E0FFF784FDF9
:100BD000401B642801D903209EE7CC4808380068F0
:100BE000C0F340400028F1D011E0FFF775FD054645
:100BF00006E0FFF771FD401B642801D903208BE755
:100C0000C24808380068C0F340400028F1D120787D
:100C100000F0020002285FD1BC48006800F00C0020
:100C200058B1BA48006800F00C0008281CD1B74839
:100C3000001F006800F48000B0B9B44808380068AC
:100C4000C0F3400020B1E068012801D0012063E733
:100C5000AE480838006820F0F800216940EAC10079
:100C6000AA490839086037E0E06800B30120A849C4
:100C70000860FFF731FD054606E0FFF72DFD401B3C
:100C8000022801D9032047E7A04808380068C0F3CC
:100C900040000028F1D09D480838006820F0F80096
:100CA000216940EAC10099490839086014E0002030
:100CB00097490860FFF710FD054606E0FFF70CFDB9
:100CC000401B022801D9032026E790480838006815
:100CD000C0F340000028F1D1207800F00800082877
:100CE0002CD16069A8B101208A490860FFF7F4FCA3
:100CF000054606E0FFF7F0FC401B022801D903205F
:100D00000AE782486C300068C0F340000028F1D048
:100D100014E000207F490860FFF7DEFC054606E08E
:100D2000FFF7DAFC401B022801D90320F4E67748DC
:100D30006C300068C0F340000028F1D1207800F04A
:100D40000400042870D1002770483830006800F093
:100D5000805090B900BF002000906C483830006887
:100D600040F080506949383108600846006800F05A
:100D70008050009000BF00BF01276748006800F462
:100D80008070B0B96448006840F4807062490860BF
:100D9000FFF7A2FC054606E0FFF79EFC401B022879
:100DA00001D90320B8E65C48006800F48070002890
:100DB000F2D000BFA068012808D15448683000680C
:100DC00040F001005149683108601DE0A068052825
:100DD0000DD14E486830006840F004004B4968313E
:100DE00008600846006840F0010008600CE04748D1
:100DF0006830006820F00100444968310860084606
:100E0000006820F00400086000BFA068A8B1FFF7E8
:100E100063FC054609E0FFF75FFC401B41F28831A7
:100E2000884202D9032077E626E038486830006817
:100E3000C0F340000028EED013E0FFF74DFC05465C
:100E400008E0FFF749FC401B41F28831884201D994
:100E5000032061E62D4868300068C0F34000002898
:100E6000EFD1012F07D129483830006820F0805099
:100E700026493831086000BFA069002845D02348C2
:100E8000006800F00C0008285DD0A069022845D158
:100E900000201F490866FFF71FFC054606E0FFF724
:100EA0001BFC401B022801D9032035E617480838EF
:100EB0000068C0F340600028F1D1D4E9070108437D
:100EC000616A40EA81110122A06AC2EB500041EA46
:100ED00000412C20005D41EA00600C49091F0860B8
:100EE00001200B490866FFF7F7FB054606E0FFF710
:100EF000F3FB401B022801D903200DE60348083804
:100F00000068C0F340600028F1D03FE0083802409C
:100F100000004742800E47420070004000201C49FC
:100F20000866FFF7D9FB054606E0FFF7D5FB401B37
:100F3000022801D90320EFE516480068C0F340609D
:100F40000028F2D122E0A069012800D1E4E511488F
:100F5000001D066806F48001E069814214D106F0A4
:100F60003F01206A81420FD147F6C0703040616A6C
:100F7000884209D106F44031A06A814204D106F0CA
:100F80007061E06A814201D00120C5E50020C3E51F
:100F9000000047420038024010B504460CB9012059
:100FA00010BD606A00B900BF0021A16294F8510031
:100FB00028B9002084F85000204600F033F80220C1
:100FC00084F851002068006820F040002168086023
:100FD000D4E901010843E1680843216908436169D4
:100FE0000843218B01F400710843E1690843216A39
:100FF0000843A16A0843216808600421A06901EA46
:101000001040616A0843216848602068C06920F484
:1010100000602168C86100206065012084F85100EB
:101020000020BDE710B586B00446142101A8FFF7E3
:1010300001F91B49206888422FD100BF0020009091
:101040001848006840F48050164908600846006857
:1010500000F48050009000BF00BF00BF002000904F
:1010600010481438006840F001000E491439086037
:101070000846006800F00100009000BF00BFE020BB
:10108000019002200290002003900320049005208C
:10109000059001A90448FFF719FA06B010BD000039
:1010A00000300140443802400000024070B5044660
:1010B0000E4615460CB9012070BD94F8490028B9B8
:1010C000002084F84800204600F01CF804F10801D4
:1010D0002068FFF713F93146A2682068FFF73CF952
:1010E0002946236BD4E90102FFF7E4F8A1682068E0
:1010F00050F8210040F00100A268216841F8220068
:101100000020D9E710B50446FFF79AF910BD70B575
:1011100004462546681EB0F1807F01D301200FE010
:10112000681E4FF0E02148610F214FF0FF3001F0C1
:10113000F5F800204FF0E0218861072008610020C9
:1011400070BD10B504460CB9012010BD94F83D00E7
:1011500028B9002084F83C00204600F00DF8022059
:1011600084F83D00211D206800F06EFD012084F808
:101170003D000020E9E7000008B50A4A01689142F5
:101180000FD100BF002100910749096841F4807127
:10119000054A11601146096801F48071009100BF91
:1011A00000BF08BD002000404038024070470000EA
:1011B0002DE9F0470446206805682068C668206865
:1011C00047694FF00008C14605F00F08B8F1000F5D
:1011D0000AD105F0200038B106F0200020B12046E9
:1011E00000F0C8FDBDE8F087B8F1000F72D007F03D
:1011F000010018B906F4907000286BD005F00100CA
:1012000030B106F4807018B1E06B40F00100E0638B
:1012100005F0040030B107F0010018B1E06B40F0B8
:101220000200E06305F0020030B107F0010018B1E0
:10123000E06B40F00400E06305F0080048B106F000
:10124000200010B907F0010018B1E06B40F0080071
:10125000E063E06B70B305F0200028B106F02000D9
:1012600010B1204600F086FD20684069C0F3801967
:10127000E06B00F0080010B9B9F1000F23D0204650
:1012800000F058FD2068406900F04000402816D169
:101290002068406920F0400021684861606B50B1CF
:1012A0001748616B0865606BFFF7A2F810B1606BBF
:1012B000016D88470CE02046FFF778FF08E02046E4
:1012C000FFF774FF04E02046FFF770FF0020E063A3
:1012D00088E7FFE705F0800030B106F0800018B124
:1012E000204600F08FFF7DE705F0400030B106F0AA
:1012F000400018B1204600F02DFD73E700BF71E7F4
:10130000211D000810B504460CB9012010BDA069CC
:1013100000B100E000BF94F8390028B9002084F83B
:101320003800204600F028F8242084F8390020688E
:10133000C06820F400502168C860204600F06EFDAF
:101340002068006920F490402168086120684069A5
:1013500020F02A00216848612068C06840F40050ED
:101360002168C8600020E063202084F8390084F8F8
:101370003A000020CAE7000010B586B004461421E8
:1013800001A8FEF757FF1F492068884238D100BFE7
:10139000002000901C48006840F010001A490860C6
:1013A0000846006800F01000009000BF00BF00BFBA
:1013B0000020009014481438006840F001001249E1
:1013C000143908600846006800F00100009000BF72
:1013D00000BF4FF4C06001900220029000200390F3
:1013E000032004900720059001A90848FFF76EF834
:1013F000002211462520FFF7F9F92520FFF7E6F92D
:1014000006B010BD00100140443802400000024008
:1014100070472DE9F84304460D4616461F464FF027
:10142000000994F8390020285DD105B116B90120D2
:10143000BDE8F88300BF94F83800012801D10220EC
:10144000F6E7012084F8380000BF0020E063212087
:1014500084F83900FFF740F98146A684E68400BF8E
:10146000002084F8380000BF2BE0E08C401EE084B0
:10147000A068B0F5805F16D14B460022802120463F
:10148000009700F0F3FE08B10320D1E7A846B8F8B2
:101490000000C0F3080021684860206908B9AD1C4D
:1014A0000FE06D1C0DE04B46002280212046009786
:1014B00000F0DCFE08B10320BAE715F8010B216843
:1014C0004860E08C0028D0D14B46002240212046C5
:1014D000009700F0CBFE08B10320A9E7202084F894
:1014E00039000020A4E70220A2E7704700BFFEE712
:1014F00030B505460024284600F028FB094908813C
:101500000021084600F094F92C2000F0B9F900BF42
:1015100004E00448008904490880641CB4F5163FBF
:10152000F7D330BD240000200000026000B5024661
:101530002F488272807A58BB362000F0A1F928200B
:1015400000F098F92A2000F09BF9002000F092F9B1
:10155000002000F08FF9012000F08CF9DF2000F06E
:1015600089F92B2000F08CF9002000F083F900208D
:1015700000F080F9012000F07DF93F2000F07AF9B9
:101580004FF4F0701A4948804FF4A07088802EE024
:101590001748807A01282AD1362000F071F94820B6
:1015A00000F068F92A2000F06BF9002000F062F9E1
:1015B000002000F05FF9012000F05CF93F2000F00E
:1015C00059F92B2000F05CF9002000F053F90020BD
:1015D00000F050F9012000F04DF9DF2000F04AF949
:1015E0004FF4A070024948804FF4F070888000BD2D
:1015F0002400002010B5002204218348FFF766F87C
:101600000A20FEF709FF012204217F48FFF75EF858
:101610000A20FEF701FFD32000F032F900F002F9B2
:101620007A49088000F0FEF87849088000F0FAF85E
:1016300076490880084600884FF6FF7101EA0020CD
:101640007249088000F0EEF87049098808436F4934
:101650000880084601886EA000F048FE6B480088AC
:1016600049F28841884201D000BFFEE7E02000F047
:1016700007F9002000F0FEF8032000F0FBF80C2032
:1016800000F0F8F8092000F0F5F8172000F0F2F863
:10169000092000F0EFF83E2000F0ECF8892000F07F
:1016A000E9F8492000F0E6F8082000F0E3F80D2002
:1016B00000F0E0F80A2000F0DDF8132000F0DAF87E
:1016C000152000F0D7F80F2000F0D4F8E12000F04A
:1016D000D7F8002000F0CEF8112000F0CBF815204C
:1016E00000F0C8F8032000F0C5F80F2000F0C2F8A1
:1016F000052000F0BFF82D2000F0BCF8342000F0E9
:10170000B9F8412000F0B6F8022000F0B3F80B2041
:1017100000F0B0F80A2000F0ADF8332000F0AAF88D
:10172000372000F0A7F80F2000F0A4F8C02000F048
:10173000A7F8172000F09EF8152000F09BF8C120B4
:1017400000F09EF8412000F095F8C52000F098F8D0
:10175000002000F08FF8122000F08CF8802000F0BC
:1017600089F8362000F08CF8482000F083F83A2001
:1017700000F086F8552000F07DF8B02000F080F8E9
:10178000002000F077F8B12000F07AF8A02000F0F7
:1017900071F8B42000F074F8022000F06BF8B62065
:1017A00000F06EF8022000F065F8022000F062F808
:1017B000E92000F065F8002000F05CF8F72000F068
:1017C0005FF8A92000F056F8512000F053F82C20C3
:1017D00000F050F8822000F04DF8112000F050F891
:1017E0000A20FEF719FE292000F04AF80120FFF731
:1017F0009DFE6FF07F40FFF77BFE0122110308483A
:10180000FEF764FF10BD0000000802402400002025
:10181000204C43442049443A494C4925780D0A005C
:10182000000C024001490888704700000000026077
:1018300000B502460B462A2000F022F8101200F0F4
:1018400019F8D0B200F016F8012000F013F8DF20EC
:1018500000F010F82B2000F013F8181200F00AF82E
:10186000D8B200F007F8012000F004F8DF2000F003
:1018700001F800BD014908807047000000000260C7
:101880004FF0C0410880704710B505480549086011
:101890000846FEF783FD08B1FEF70BFD10BD000002
:1018A000003002400000002000B58FB01C2108A8C5
:1018B000FEF7C0FC1C2101A8FEF7BCFC4FF0204045
:1018C0001F4908601F4848600020886000211C48AC
:1018D000C16001611021416100218161C16101622A
:1018E00041624FF4805181620021C1624FF4804116
:1018F000016300214163816341640F2008900990D6
:1019000050200A900F200B9010200C9011200D9069
:1019100000200E900F200190029003900490102060
:101920000590112006900020079001AA08A90448FC
:10193000FFF7BCFB08B1FEF7BCFC0FB000BD000018
:1019400030000020040100A000B587B0142102A8D7
:10195000FEF770FC00BF002001904A48006840F08C
:101960000400484908600846006800F0040001903F
:1019700000BF00BF00BF002001900846006840F093
:10198000800008600846006800F08000019000BFF9
:1019900000BF00BF002001900846006840F0010031
:1019A00008600846006800F00100019000BF00BF19
:1019B00000BF002001900846006840F01000086059
:1019C0000846006800F01000019000BF00BF00BF93
:1019D000002001900846006840F0080008600846B2
:1019E000006800F00800019000BF00BF00BF0020A9
:1019F00001900846006840F0020008600846006850
:101A000000F00200019000BF00BF002205211E4827
:101A1000FEF75CFE00224FF480511C48FEF756FE94
:101A2000012240211A48FEF751FE052002900120B4
:101A3000039000200490059002A91348FEF746FD8C
:101A40004FF48050029001200390002004900590F4
:101A500002A90E48FEF73AFD4020029001200390B3
:101A600000200490059002A90948FEF72FFD802070
:101A7000029000200390049002A90548FEF726FD7D
:101A800007B000BD3038024000080240000C0240A0
:101A90000004024010B50E480E4908604FF48270F1
:101AA000486000210B488160C160016141614FF4D1
:101AB000007181613021C161002101624162816256
:101AC0000A21C162FFF768FA08B1FEF7F2FB10BD08
:101AD000003001408000002010B50A480A49086023
:101AE000532048600021084881604FF6FF71C160B3
:101AF000002101618161FFF724FB08B1FEF7D9FBEA
:101B000010BD000000200040D800002010B50B4898
:101B10000B4908604FF4E1304860002108488160BB
:101B2000C16001610C21416100218161C161FFF748
:101B3000E9FB08B1FEF7BDFB10BD0000001001403D
:101B40001801002000BFFEE77047704710B501463E
:101B500000220023002401F47800020A01F47C40F2
:101B60004309C1F3C40442EA0300204310BD704797
:101B700010B5FEF7B7FD10BD00B593B0302107A832
:101B8000FEF758FB142102A8FEF754FB00BF00200B
:101B900001902448006840F08050224908600846BF
:101BA000006800F08050019000BF00BF00BF00201F
:101BB00001901D48006840F480401B4908600846B9
:101BC000006800F48040019000BF00BF0120079032
:101BD0000004089002200D9041050E9104210F9100
:101BE000A8211091022111910421129107A8FEF75A
:101BF0008FFF08B1FEF75DFB0F20029002200390DB
:101C0000002004904FF4A05005904FF480500690AF
:101C1000052102A8FEF73CFE08B1FEF74AFB13B00F
:101C200000BD0000403802400070004005480068D8
:101C300040F47000034908604FF0006001498039AA
:101C40000860704788ED00E010B50268294B9842A3
:101C50000ED0B0F1804F0BD0274B984208D0274BC5
:101C6000984205D0264B984202D0264B984203D189
:101C700022F070024B681A431E4B984220D0B0F1FC
:101C8000804F1DD01C4B98421AD01C4B984217D045
:101C90001B4B984214D01B4B984211D01A4B9842C0
:101CA0000ED01A4B98420BD0194B984208D0194BC2
:101CB000984205D0184B984202D0184B984203D155
:101CC00022F44072CB681A4322F080034C6943EA45
:101CD000040202608B68C3620B688362054B984202
:101CE00002D0084B984201D10B6903630123436181
:101CF00010BD00000000014000040040000800404A
:101D0000000C00400004014000400140004401403C
:101D10000048014000180040001C00400020004026
:101D200070B50546AC6B0020E085E0842046FFF7E7
:101D30003DFA70BD0168C96821F490710268D160F4
:101D40000168496921F0010102685161202180F890
:101D50003A10704710B504462068C06820F0400073
:101D60002168C860202084F839002046FFF7BDFBB9
:101D7000002010BD70B5044694F83A0022284AD1DC
:101D8000A068B0F5805F13D1A56A206940B92068CA
:101D90004068C0F308002880A06A801CA06219E097
:101DA00020684068C0B22880A06A401CA06211E090
:101DB000206938B920684068C1B2A26A501CA0628C
:101DC000117007E02068406800F07F01A26A501C93
:101DD000A0621170E08D401E80B2E085C8B9206815
:101DE000C06820F020002168C8602068C06820F426
:101DF00080702168C8602068406920F00100216877
:101E00004861202084F83A002046FFF701FB0020BB
:101E100070BD0020FCE70220FAE700002DE9F84F32
:101E200004462068006920F44050E16808432168B6
:101E300008612169A068084361690843E1690843B2
:101E400000902068C06849F20C61884300990843FB
:101E50002168C8602068406920F44070A169084387
:101E600021684861E069B0F5004F75D1E349206809
:101E7000884203D0E249206888426FD1FEF7E0FD36
:101E8000814602206168A0FB01510B461920A9FB85
:101E900000712A463846FEF795F96421B0FBF1F04F
:101EA0004FEA001A02206168A0FB01510B4619207D
:101EB000A9FB00712A463846FEF784F9074602203E
:101EC0006168A0FB01510B461920A9FB00B12A460D
:101ED0005846FEF777F96421B0FBF1F000EBC00142
:101EE00001EB0010A7EB8000322101EBC000642160
:101EF000B0FBF1F000F0F8000AEB400A0220616844
:101F0000A0FB01510B461920A9FB00712A46384657
:101F1000FEF758F9074602206168A0FB01510B4605
:101F20001920A9FB00B12A465846FEF74BF9642157
:101F3000B0FBF1F000EBC00101EB0010A7EB80005B
:101F4000322101EBC0006421B0FBF1F000F007008A
:101F50005044216888604FE16EE0FFE7FEF760FDC6
:101F6000814602206168A0FB01510B461920A9FBA4
:101F700000712A463846FEF725F96421B0FBF1F0DE
:101F80004FEA001A02206168A0FB01510B4619209C
:101F9000A9FB00712A463846FEF714F907460220CD
:101FA0006168A0FB01510B461920A9FB00B12A462C
:101FB0005846FEF707F96421B0FBF1F000EBC001D1
:101FC00001EB0010A7EB8000322101EBC00064217F
:101FD000B0FBF1F000F0F8000AEB400A0220616863
:101FE000A0FB01510B461920A9FB00712A46384677
:101FF000FEF7E8F8074602206168A0FB015003469F
:102000001920A9FB00B12A465846FEF7DBF86421E7
:10201000B0FBF1F000EBC00101EB0010A7EB80007A
:10202000322101EBC0006421B0FBF1F000F00700A9
:10203000504421688860DFE070492068884203D0FE
:102040006F49206888426BD1FEF7FAFC8146042074
:102050006168A0FB01510B461920A9FB00712A46BB
:102060003846FEF7AFF8824604206168A0FB0151B4
:102070000B461920A9FB00712A463846FEF7A2F844
:102080006421B0FBF1F000EBC00101EB0010AAEB02
:102090008000322101EB00106421B0FBF1F000F070
:1020A000F00A04206168A0FB015003461920A9FB37
:1020B00000712A463846FEF785F86421B0FBF1F03E
:1020C0000AEB001A04206168A0FB01510B4619209D
:1020D000A9FB00712A463846FEF774F8074604202B
:1020E0006168A0FB015003461920A9FB00B12A46F4
:1020F0005846FEF767F86421B0FBF1F000EBC00131
:1021000001EB0010A7EB8000322101EB00106421ED
:10211000B0FBF1F000F00F005044216888606BE0E4
:10212000FEF77EFC814604206168A0FB0150034657
:102130001920A9FB00712A463846FEF743F882466B
:1021400004206168A0FB015003461920A9FB00711F
:102150002A463846FEF736F86421B0FBF1F000EB72
:10216000C00101EB0010AAEB8000322101EB00104E
:102170006421B0FBF1F000F0F00A04206168A0FBDC
:10218000015003461920A9FB00712A463846FEF784
:1021900019F86421B0FBF1F00AEB001A0420616821
:1021A000A0FB017003461920A9FB005001463A46E6
:1021B0002846FEF707F8074604206168A0FB015097
:1021C00003461920A9FB00B12A465846FDF7FAFF3D
:1021D0006421B0FBF1F000EBC00101EB0010A7EBB4
:1021E0008000322101EB00106421B0FBF1F000F01F
:1021F0000F00504421688860BDE8F88F001001404E
:1022000000140140014691F8390021282CD188683A
:10221000B0F5805F0FD10A6A1088C0F308000B6820
:102220005860086918B9086A801C086209E0086AE1
:10223000401C086205E00B6A581C086218780B689D
:102240005860C88C401E80B2C88458B90868C068FD
:1022500020F080000B68D8600868C06840F040003B
:102260000B68D860002070470220FCE72DE9F041A0
:1022700004460D4617469846069E21E0701CF8B1AC
:102280002EB1FEF729FAA0EB0800B04218D9206859
:10229000C06820F4D0702168C8602068406920F0D0
:1022A000010021684861202084F8390084F83A0050
:1022B00000BF002084F8380000BF0320BDE8F08193
:1022C000206800682840A84201D1012000E00020D9
:1022D000B842D3D00020F1E710B50248FEF768FFFE
:1022E00010BD00001801002000BFFEE70FB4054B31
:1022F00010B503A9044A029800F034F810BC5DF848
:1023000014FB000025260008200000200248006879
:10231000C0F30220704700000CED00E010B500286B
:1023200004DB0A07130E054A135406E00A07140ECD
:10233000034A00F00F031B1FD45410BD00E400E05B
:1023400018ED00E002E008C8121F08C1002AFAD107
:1023500070477047002001E001C1121F002AFBD125
:10236000704700002DE9FF4F8DB09B460F46044695
:10237000002606E025280BD05A460F999047641C8A
:10238000761C20780028F5D111B03046BDE8F08FDA
:102390000025A8460122984900E0054314F8013FB2
:1023A000203B02FA03F00842F7D120782E2817D1FB
:1023B00014F8010F45F004052A280ED06FF02F0203
:1023C0002078A0F1300109290AD808EB880102EB36
:1023D000410100EB0108641CF2E757F8048B641C10
:1023E00020786C280DD004DC4C2812D06A2811D13A
:1023F00004E074280DD07A280CD10AE045F40015C9
:1024000007E0617845F48015814202D1641C05F52E
:102410008015641C2078692844D008DC0028B3D0DB
:10242000582867D063280FD0642808D13AE0702874
:1024300065D0732812D075285AD078285AD05A46B9
:102440000F999047761CD5E017F8040B8DF8000023
:1024500000208DF80100E946012003E057F8049BB5
:102460004FF0FF3069074FF0000501D40AE06D1C02
:1024700045450DDA8542FADB19F805100029F6D139
:1024800006E06D1C8542FCDB19F805100029F8D127
:102490002E4404E019F8010B5A460F9990476D1E1F
:1024A000F8D2A7E00A200021CDE90801C5F30250C7
:1024B00002280CD001CFC117021E71F100020CDA04
:1024C0000023D0EB030063EB01012D2208E0FF1D88
:1024D00027F00707F7E80201EEE72A0504D52B22CB
:1024E0008DF8282001223CE0EA073AD02022F7E7C5
:1024F0000A2000E010200021CDE9080107E01020AB
:10250000002145F00405CDE908014FF00808C5F3A6
:102510000250022810D001CF00214FF0000A2A07F4
:1025200020D52278702A0DD0DDE908C38CF0100C7C
:102530005CEA030C0CD015E0FF1D27F00707F7E855
:102540000201EAE740228DF828204FF0010A0CE052
:1025500050EA010306D030238DF828308DF8292069
:10256000022292462278582A04D024A20DF1200992
:102570000B9209E026A2F9E7DDE90823FDF722FE28
:102580000B9B9B5C09F8013D50EA0102F4D1ADEBD5
:10259000090020300890680701D44FF0010808991D
:1025A000884503DD0898A8EB000000E00020804685
:1025B000002506E00AA85A46405D0F9990476D1C19
:1025C000761C5545F6DB04E030205A460F999047BB
:1025D000761CB8F10001A8F10108F5DC05E019F856
:1025E000010B5A460F999047761C0899481E08908F
:1025F0000029F4DC641CC4E60928010030313233C0
:10260000343536373839616263646566000000002E
:102610003031323334353637383941424344454618
:102620000000000013B50C464FF6FF730122694607
:102630000248FEF7EEFE00981CBD000018010020C5
:1026400000BF00BFFEF75AF8FFF796FAFFF77CF9D4
:10265000FFF71AF9FFF728F9FFF758FAFFF71AFA08
:10266000FFF73AFAFEF7C6FF02E00A20FDF7D4FEB4
:10267000FBE7000000000000000001020304060761
:10268000080900000000010203040000AC26000855
:10269000000000202400000044230008D026000889
:1026A000240000203405000054230008000000002E
:1026B000000000000000000000000000000000001A
:1026C00010000000010000000024F40000000000E1
:040000050800018965
:00000001FF
